:020000040800F2
:1000000008180020015300083504000837040008D0
:100010003B0400083F0400084304000800000000FF
:10002000000000000000000000000000470400087D
:1000300049040008000000004B0400084D040008BB
:100040001B5300081B5300081B5300081B530008D8
:100050001B5300081B5300081B5300081B530008C8
:10006000B32F00081B5300081B5300081B53000844
:100070001B5300081B5300081B5300081B530008A8
:100080001B5300081B5300081B5300081B53000898
:100090001B5300081B5300081B5300081B53000888
:1000A0001B5300081B5300081B5300081B53000878
:1000B0001B530008033400081B2F00081B530008C3
:1000C0001B5300081B5300081B5300081B53000858
:1000D0001B530008D5520008072D000811300008F6
:1000E0001B5300081B5300081B5300081B53000838
:1000F0001B5300081B5300081B5300081B53000828
:100100001B5300081B530008773400081B530008DA
:100110001B5300081B5300081B530008253300081D
:100120001B5300081B5300081B5300081B530008F7
:1001300000F002F800F090F80AA090E8000C824469
:100140008344AAF10107DA4501D100F085F8AFF246
:10015000090EBAE80F0013F0010F18BFFB1A43F0A5
:1001600001031847D88D0100F88D0100103A24BF13
:1001700078C878C1FAD8520724BF30C830C144BF0C
:1001800004680C607047000000230024002500264E
:10019000103A28BF78C1FBD8520728BF30C148BFEA
:1001A0000B6070476E290BF0B88270290BF0A580A8
:1001B00066290DF0748065290DF0718067290DF0B6
:1001C0006E806129AFF3008003681B0A28BF41F0ED
:1001D000800169290BF0168064290BF013807529C2
:1001E0000BF010806F290BF0B08378290BF0718031
:1001F000E9290BF04B83E4290BF04883F5290BF038
:100200004583EF290BF0AD83F8290BF0708003686C
:10021000DB0928BF41F0800163290BF0BA82732902
:100220000BF0BF82E3290BF02F86F3290BF0348605
:10023000002070471FB50BF0C7FB04000020002111
:100240000CF04AFB401C6060002000210CF05AFBBF
:10025000E0601FBD10B510BD0BF04AFE1146FFF760
:10026000E9FF00F009F80BF017FF03B4FFF7F2FF06
:1002700003BC04F0D5FF000004F068FF4FF4A06059
:1002800005F05EF800F0EEF904F0BEF80BE020484F
:100290000088B0F5167F06DD00201E4908701EA0FC
:1002A0000AF03EFF03E003F042FA0028EFD100BF5E
:1002B000184801781BA00AF033FF01221F4920488B
:1002C00001F02FF81FA00AF02BFF2DA00AF028FF45
:1002D0003AA00AF025FF2AA00AF022FF19A00AF08E
:1002E0001FFF0AF001F812E000F008FA15A00AF06A
:1002F00017FF23A00AF014FF3FA00AF011FF20A06F
:100300000AF00EFF0FA00AF00BFF02F0F2FBEBE782
:100310002C000020300000204448543131B3ACCAD6
:10032000B10D0A0044485431315F696E69745F66EB
:100330006C61672069732025640A000000000020BA
:10034000060000202D2D2D2D2D2D2D2D2D2D2D2D6B
:100350002D2D2D2D2D2D2D2D2D2D2D2D2D2D2D2DCD
:100360002D2D2D2D2D2D2D2D2D2D2D2D2D2D2D2DBD
:100370002D2D2D2D2D2D2D2D2D2D0D0A00000000A4
:100380002D20202020202020202020202020202060
:10039000202020202020202020202020202020205D
:1003A000202020202020202020202020202020204D
:1003B00020202020202D0D0A000000002D202020CC
:1003C000202020BFAABBFA3573C4DAB5E3BBF720FF
:1003D0003C574B5F55503E20B0B4BCFCA3ACBDF8BD
:1003E000C8EBC5E4D6C3C4A3CABD2020202020206A
:1003F000202D0D0A000000002D202020202020208C
:1004000020202020202020202020646973706C612F
:10041000794F7065726174696F6E28293B202020C6
:10042000202020202020202020202020202D0D0AE8
:1004300000000000704700BFFEE700BFFEE700BFFE
:10044000FEE700BFFEE77047704770477047000047
:100450000CB50020019000906C48006840F480309A
:100460006A49086000BF6948006800F400300090E5
:100470000198401C0190009818B90198B0F5A06F40
:10048000F1D16248006800F4003010B10120009002
:1004900001E0002000900098012843D15C480068EA
:1004A00040F010005A4908600846006820F0030038
:1004B00008600846006840F0020008605348406841
:1004C000524948600846406848600846406840F421
:1004D000806048600846406820F47C104860084608
:1004E000406840F4E81048600846006840F08070BA
:1004F000086000BF4548006800F000700028F9D08F
:100500004248406820F0030040494860084640687F
:1005100040F00200486000BF3C48406800F00C001A
:100520000828F9D10CBD10B5FFF792FF10BD10B52A
:100530003648006840F001003449086008464068C9
:10054000344908403149486008460068324908404B
:100550002E4908600846006820F48020086008469C
:10056000406820F4FE0048604FF41F008860FFF7E9
:10057000DAFF4FF000602949086010BD10B5002176
:1005800000200022214B5B6803F00C0121B10429FB
:1005900006D0082928D107E0214B224C236027E010
:1005A0001F4B204C236023E0184B5B6803F4701052
:1005B000164B5B6803F48032022303EB904022B9B0
:1005C000194B4343174C23600DE0104B5B6803F459
:1005D000003323B1144B4343124C236003E0104B10
:1005E0004343104C236003E00D4B0E4C236000BFCF
:1005F00000BF064B5B68C3F303130C4CE15C094B73
:100600001B68CB40074C236010BD00000010024067
:10061000002002400000FFF8FFFFF6FE08ED00E0BA
:1006200000127A001800002000093D001C00002084
:1006300001464906EA4A926942F00102E84B9A6192
:10064000E84A526822F0E062E64B5A601A46526865
:100650000A435A60704710B541F61F41092002F065
:10066000A3FE10BD10B50220FFF7E2FF0120FFF747
:10067000DFFF4FF4E13002F0FAFC4FF4165002F0C5
:1006800037FFFFF7E8FF07F0ABFB09F04AFC00F08B
:10069000FFFB00F023FC00F059FF03F08FF904F09A
:1006A000B7F904F073F810BD08B54EF67D7004F08C
:1006B00054F8CDA04FF6FF7300220A2100901120BC
:1006C00003F038FDCDA04FF6FF73002228210090E3
:1006D000112003F02FFDCEA04FF6FF73002246211C
:1006E0000090112003F026FDCDA04FF6FF730022ED
:1006F00064210090112003F01DFD08BD08B593E0B2
:1007000000F00BFCCB49087008460078042870D133
:10071000C948007800287FD1FFF7C6FFC7A00AF0BC
:10072000FFFCD5A00AF0FCFCE2A00AF0F9FCF0A066
:100730000AF0F6FCD0A00AF0F3FCFCA00AF0F0FCF2
:1007400068E000F0EAFBBB4908700846007808B191
:10075000FFF7AAFFB7480078012829D0022817D050
:10076000032811D0042845D1002009F0F1FBFEA098
:100770000AF0D6FCFEA04FF4784300222821009016
:10078000112003F0D7FC36E00120FD49087032E06B
:10079000022009F0DDFBFBA04FF478430022462144
:1007A0000090112003F0C6FCF9A00AF0B9FC22E089
:1007B000FC48006808B9012000E00020F949086001
:1007C000F948D0F8940108B9012000E00020F74969
:1007D0000860012009F0BCFBF5A04FF4784300222B
:1007E00064210090112003F0A5FCF5A00AF098FC0C
:1007F00001E011E000BF00BF07F047FAF54809F03B
:10080000F6FDF5480078012804D1DD48007801287C
:1008100000D100E095E702E0052004F0D4FC07F0E9
:1008200034FAEC4809F0E3FD8348007800283FF4EF
:1008300067AF08BD1CB5E9A0ECA1F0A3F2A2CDE919
:100840000010F5A1F7A002F00BFDF9490870084669
:100850000078012807D1F7480078012803D1F6482D
:1008600000F031FD06E0F2480078022802D1F3489A
:1008700000F029FDEE480078042807D1F048007800
:10088000012803D10621EF4802F07BFEEE480088E4
:10089000B0F5617F08DDEC480088B0F5966F03DAAB
:1008A000EA49EB4802F017FFEA48007801287DD1B9
:1008B000E54800880A2190FBF1F201FB12000428B0
:1008C00002DCE54803F0A3F8E3480088E34909881F
:1008D00088426BD0E048008896281FDAE04800780C
:1008E00048B9E049097801EB4101DF4A8818032241
:1008F000D24900F016FDDA480078012804D103221D
:10090000CE49DA4800F00DFDD5480078022804D120
:100910000322CA49D64800F004FDEFE1CE48008822
:10092000B0F52F7F1FDACE48007848B9CD49097855
:1009300001EB4101CC4A88180222C04900F0F1FCC9
:10094000C7480078012804D10222BC49C74800F0FA
:10095000E8FCC3480078022804D10222B749C44801
:1009600000F0DFFCCAE1BC48008840F2DC5188425C
:1009700021DABB48007848B9BA49097801EB41014E
:10098000B94A88180122AD4900F0CBFCB448007880
:10099000012804D10122A949B44800F0C2FCB048A2
:1009A0000078022806D10122A44900E0AAE1B0485B
:1009B00000F0B7FCA2E1A848008840F6C4118842C4
:1009C0000CDAA748007840B9A649097801EB410143
:1009D000A54A8818022299494CE14DE15FE10000E7
:1009E0000010024000000140556E64657220436FA4
:1009F0006E66696775726174696F6E0057696669C2
:100A0000205265736574203C574B55503E000000E2
:100A10004169722D4C696E6B203C4B4559313E004B
:100A2000536F66742D5265736574203C4B45593085
:100A30003E000000310000202E0000202D2D2D2D25
:100A40002D2D2D2D2D2D2D2D2D2D2D2D2D2D2D2DD6
:100A5000C7EBD1A1D4F1D2D4CFC2C1ACBDD3B7BD05
:100A6000CABD2D2D2D2D2D2D2D2D2D2D2D2D2D2D89
:100A70002D2D0D0A000000007C20202020202020A9
:100A80002020202020202020202020202020202066
:100A90002020202020202020202020202020202056
:100AA000202020202020202020202020207C0D0A13
:100AB000000000007C20204B4559315F50524553C7
:100AC0002D2D3E4169722D6C696E6B2020207C7C3F
:100AD00020204B4559305F505245532D2D3E534FEA
:100AE00046542D6C696E6B20207C0D0A00000000BE
:100AF0007C2020574B55505F505245532D2D3E6C56
:100B0000696E6B5F7265737274207C7C20204B452C
:100B100059325F505245532D2D3E4E554C4C20209E
:100B200020202020207C0D0A000000007C2D2D2D8F
:100B30002D2D2D2D2D2D2D2D2D2D2D2D2D2D2D2DE5
:100B40002D2D2D2D2D2D2D2D2D2D2D2D2D2D2D2DD5
:100B50002D2D2D2D2D2D2D2D2D2D2D2D2D2D2D2DC5
:100B60002D7C0D0A00000000B8B4CEBB00000000D0
:100B70002D3E205769666920526573657400000038
:100B8000520000202D3E4169722D4C696E6B0000B1
:100B90004169722D6C696E6BC4A3CABDBDD3C85CBC
:100BA0000D0A000094812142000023429401234257
:100BB0002D3E536F66742D526573657400000000FE
:100BC000534F46542D6C696E6BC4A3CABDBDD3C8C8
:100BD0005C0D0A00B00D00202F000020686F6D65CD
:100BE000776F726B5F62616400000000686F6D6513
:100BF000776F726B5F676F6F64000000706F737464
:100C00007572655F62616400706F73747572655FA1
:100C1000676F6F6400000000646F776E5F726564D9
:100C2000000000006F70656E5F7265640000000078
:100C30006B0000206A00002012000020000000204D
:100C400069000020460000202C00002095000020B4
:100C5000940000207F0000209600002098000020D3
:100C60007B0000209A00002003000020820000206A
:100C70008500002000F055FB70480078012804D161
:100C800002226F496F4800F04CFB6C480078022844
:100C900034D102226A496C4800F043FB2EE06B48D5
:100CA000008840F6AC5188421FDA6448007848B9A1
:100CB0006749097801EB4101664A881803226049B7
:100CC00000F02FFB5D480078012804D103225C4925
:100CD0005C4800F026FB5948007802280ED1032218
:100CE0005749594800F01DFB08E05848008840F675
:100CF000AC51884202DB524800F0E5FA53480088C4
:100D00005549088006F0C1FF544809F070FB1CBD2E
:100D1000F8B506460C46524890F8A8020A2190FB06
:100D2000F1F085B248F210430022214610460095AA
:100D300003F0F3FA4A4890F8A8020A2190FBF1F276
:100D400001FB120085B248F2104300222146202008
:100D5000009503F0E2FA0B2048F2104300222146EE
:100D60000090402003F0D9FA3D4890F8A9020A21EA
:100D700090FBF1F085B248F210430022214660203A
:100D8000009503F0CAFA364890F8A9020A2190FBB0
:100D9000F1F201FB120085B248F210430022214615
:100DA0008020009503F0B9FAF8BDF8B504460D4669
:100DB00016462C4802782CA12C480AF0BDF92C4884
:100DC000027829A12B480AF0B7F92BA0334600225C
:100DD00029460090204603F0E8F8244833460022D4
:100DE0002946009004F1220003F0DFF824A03346E6
:100DF00000222946009004F1320003F0D6F821A029
:100E00003346002205F112010090204603F0CDF890
:100E100018483346002205F11201009004F1220027
:100E200003F0C3F819A03346002205F11201009027
:100E300004F1320003F0B9F8F8BD00007B00002097
:100E40000000002082000020850000209600002085
:100E50009A0000200300002098000020B00D002020
:100E6000250E0020940000202564000032000020A0
:100E70009500002036000020CEC2B6C80000000059
:100E8000CEF70000CAAAB6C8000000002500000086
:100E900008B50121482004F0DDFD2020ADF8000058
:100EA00010208DF8030003208DF8020069460948E0
:100EB00004F014FB2021074804F0BDFB2020ADF80E
:100EC00000006946044804F009FB2021024804F0B0
:100ED000B2FB08BD000C01400018014008B541F606
:100EE0001F411D2002F09AFA0121442004F0B2FDB6
:100EF0001C20ADF8000028208DF8030069466648E4
:100F000004F0ECFA0120ADF8000028208DF8030071
:100F10006946624804F0E2FA08BD10B510215E4847
:100F200004F06FFB002846D108215B4804F069FB00
:100F3000002840D10421584804F063FB00283AD12E
:100F40000121564804F05DFB002834D15448007854
:100F5000052803DA00205349087022E0524800783F
:100F6000012802D14F49087013E04F480078022849
:100F700002D14C4908700CE04B480078032802D19C
:100F80004849087005E048480078042801D14549DF
:100F9000087045480078012803DB06F073FE4349DA
:100FA0000860002040490870414908703C490870B9
:100FB0003C48007810BD1021374804F022FB01287E
:100FC00014D10821344804F01CFB78B904213248BC
:100FD00004F017FB50B90121304804F012FB28B986
:100FE0000120314908703249087052E010212A4826
:100FF00004F007FBB0B90821274804F002FB0128E0
:1010000010D10421244804F0FCFA58B901212348E6
:1010100004F0F7FA30B9022023490870012024496E
:10102000087036E010211C4804F0EBFAB0B9082132
:10103000194804F0E6FA88B90421174804F0E1FAE7
:1010400001280BD10121154804F0DBFA30B9032047
:10105000154908700120164908701AE010210E4841
:1010600004F0CFFAA8B908210B4804F0CAFA80B9F5
:101070000421094804F0C5FA58B90121074804F0D1
:10108000C0FA012805D10420074908700120084949
:10109000087000208EE700000018014000080140A1
:1010A000550000205300002056000020E0000020E2
:1010B0005400002008B50121082004F0CBFC0120D9
:1010C000ADF8000010208DF8030003208DF8020019
:1010D0006946E24804F002FA08BD704710B50121E4
:1010E000DF4800F0E0FA0121DD4800F0DCFA0121E0
:1010F000DB4800F0D8FA0121D94800F0D4FA0121E8
:10110000D74800F0D0FA0121D54800F0CCFA0121EF
:10111000D34800F0C8FA0121D14800F0C4FA0121F7
:10112000CF4800F0C0FA0121CD4800F0BCFA0121FF
:10113000CB4800F0B8FA0121C94800F0B4FA012107
:10114000C74800F0B0FA0121C54800F0ACFA01210F
:10115000C34800F0A8FA0121C14800F0A4FA012117
:10116000BF4800F0A0FA0121BD4800F09CFA01211F
:10117000BB4800F098FA0121B94800F094FA012127
:10118000B74800F090FA0121B54800F08CFA01212F
:10119000B34800F088FA0121B14800F084FA012137
:1011A000AF4800F080FA0121AD4800F07CFA01213F
:1011B000AB4800F078FA0121A94800F074FA012147
:1011C000A74800F070FA0121A54800F06CFA01214F
:1011D000A34800F068FA0121A14800F064FA012157
:1011E0009F4800F060FA10BD2DE9F041054600244B
:1011F00016E02E5D00270FE006F0800020B10121EF
:10120000984800F050FA03E00121974800F04BFAAB
:101210007006060E781CC7B2082FEDDB601CC4B246
:10122000032CE6DBBDE8F0812DE9F04105460E46D2
:10123000002432E03CB9285D022101FB0600C0B267
:1012400007468A490870012C03D1285D0746874963
:101250004870022C07D1285D042101FB0600C0B2B2
:101260000746824988704FF0000811E007F08000BF
:1012700020B101217B4800F016FA03E001217A48F1
:1012800000F011FA7806070E08F1010000F0FF08DF
:10129000B8F1080FEADB601CC4B2032CCADBBDE85E
:1012A000F08170B50546FFF719FF002406E0032121
:1012B00001FB0450FFF798FF601CC4B2202CF6DB42
:1012C000FFF70CFF70BD70B50546FFF707FF002460
:1012D00004E02846FFF788FF601CC4B2202CF8DB2E
:1012E000FFF7FCFE70BD70B504460E46FFF7F6FE34
:1012F00021785FA009F014FF61785DA009F010FF6C
:10130000A1785BA009F00CFF002505E031462046DE
:10131000FFF78AFF681CC5B2202DF7DBFFF7DEFE62
:1013200070BD2DE9F04180460F461646FFF7D6FE08
:10133000012401253BE0052D00D10125012E09D115
:10134000032094FBF0F100FB114018B93846FFF779
:101350004BFF28E0022E0AD1204604EBD071491041
:10136000A4EB410119B93846FFF73EFF1BE0032EFD
:1013700010D1284605EBD0714910A5EB410129B1E8
:10138000032195FBF1F201FB125119B93846FFF721
:101390002BFF08E0042E03D13846FFF725FF02E0BB
:1013A0004046FFF721FF601CC4B2681CC5B2202C68
:1013B000C1DDFFF793FEBDE8F08170B506460C462F
:1013C000FFF78CFE002504E03046FFF70DFF681C98
:1013D000C5B2A542F8DBFFF781FE70BD70B50546CA
:1013E0000E46FFF77BFEC5F12000C4B206E00321E4
:1013F00001FB0460FFF7F8FE601CC4B2202CF6DB92
:10140000002406E0032101FB0460FFF7EDFE601CF1
:10141000C4B2C5F12000A042F4DCFFF75FFE70BD4E
:1014200070B505460E46FFF759FE2C4606E003212F
:1014300001FB0460FFF7D8FE601CC4B2202CF6DB71
:10144000002406E0032101FB0460FFF7CDFE601CD1
:10145000C4B2AC42F6DBFFF741FE70BD000C0140A8
:10146000590000205800002057000020850000206F
:101470002F2F2F2F2F2F2F2F2F2F25642F2F2F2F51
:101480002F2F2F2F2F2F0D0A0000000000B58BB03B
:101490000121084604F0D1FA924804F043FD924835
:1014A00000900020029001200390002004908020F2
:1014B000059000200690079008904FF40050099086
:1014C00000200A906946874804F0CEFD8548143014
:1014D00004F028FD84480090102002900120039021
:1014E000002004908020059000200690079008902E
:1014F0004FF40050099000200A9069467948143052
:1015000004F0B2FD0122114677480C3804F027FFA1
:101510000122022174480C3804F021FF00200BB096
:1015200000BD10B5044670480C3800884FF6C771EE
:1015300008406D490C39088008460088204308801F
:10154000012169480C3804F0E2FE10BD00B587B0F7
:101550000121082004F07EFA0121880304F087FAB3
:101560004FF46040ADF8180018208DF81B000320E0
:101570008DF81A0006A95D4803F0B0FF4FF46041F2
:101580005A4804F058F80020ADF804004FF4827077
:10159000ADF806000020ADF808000220ADF80A0002
:1015A0000120ADF80C004002ADF80E003820ADF877
:1015B00010000020ADF812000720ADF8140001A9BA
:1015C00049480C3804F0FEFD012147480C3804F06E
:1015D0009EFE1020FFF7A5FFFFF758FF07B000BDE4
:1015E00070B50546002405E0601CC4B2C82C01DDBE
:1015F000002070BD02213C480C3804F00CFF00288C
:10160000F2D0294638480C3804F0B2FE002405E038
:10161000601CC4B2C82C01DD0020EAE70121324879
:101620000C3804F0F8FE0028F2D02F480C3804F0F3
:10163000A1FEC0B2DDE770B504460D462948443826
:1016400085640465806D20F08000264944398865F2
:101650000121244804F033FD01212248143004F014
:101660002EFD00BF4FF4005004F044FD0028F9D0D7
:101670004FF4005004F052FD4FF4003004F04EFDE2
:101680000021184804F01BFD00211648143004F016
:1016900016FD14484438806D40F0800011494439EB
:1016A0008865002070BD70B504460D460D4844386D
:1016B000C565446601210B48143004F000FD00BFED
:1016C0004FF4003004F016FD0028F9D04FF400303C
:1016D00004F024FD00210348143004F0F0FC002045
:1016E00070BD0000440002400C380040000C014076
:1016F00038B500250124DBA009F012FDE8A009F0AF
:101700000FFDF6A009F00CFDE5A009F009FDD5A03C
:1017100009F006FD4EF67D7003F01FF8FEA04EF6B0
:101720007D730022642100900A2002F003FDFCA0DA
:101730004EF67D73002264210090084602F0FAFC08
:10174000F948407CF9490870F748407DF84908702D
:10175000F54890F82500F74908703DE1F648007813
:1017600020B1F5480078012800D036E1FFF7D5FB1D
:10177000F249087008460078032803D0084600782C
:10178000042800D129E1ED480078012819D0E64865
:10179000D0F81100E5490978884212D1E248D0F822
:1017A0002500E449097888420BD1E54800780128F2
:1017B00007D0E4480078012803D0E34800780128E6
:1017C00079D1E2A009F0ACFCD5A04FF47843002217
:1017D00064210090084602F0ADFCCFA04EF67D7368
:1017E0000022642100900A2002F0A4FCD348007873
:1017F00001280DD1DB48057029466A1CD5B201EBE2
:101800004101D94A8818FFF75EFD042D00D100255B
:10181000C548D0F81100C5490978884212D0C2489D
:10182000407CD04908700978491E01EB4101CE4A3D
:101830008818FFF748FD0020CC490870BA48407C62
:10184000BA490870BE480078012807D0BD48007822
:10185000012803D0BC480078012817D10020B949DD
:101860000870B9490870B6490870AF48407FC04950
:101870000870AD48407E4870AB4890F821008870F1
:101880000846FFF720FD0120B8490870A648D0F8A7
:101890002500A849097888420DD0A34890F8251062
:1018A000B448FFF720FD0220B04908709E4890F828
:1018B0002500A0490870A1480078022806D09A485F
:1018C000D0F815009A490978884276D092A04FF452
:1018D00078430022642100900A2002F02BFC90A0A3
:1018E0004EF67D73002264210090084602F022FC2F
:1018F0008D48D0F815008E490978884233D08A483F
:10190000D0F8150018B99C48FFF7DDFC27E0974890
:10191000007868B98449D1F8152092490978491EA0
:1019200001EB4101904BC8189349FFF7FAFC16E010
:101930008E480078012807D17B48D0F815208E49C1
:101940008B48FFF7EEFC0AE088480078022806D1B1
:101950007548D0F8152088498848FFF7E2FC72489E
:10196000407D7349087075480078022825D17F486A
:10197000007860B92246631CDCB27A49097801EB31
:101980004101794BC8187C49FFF7CBFC12E077483E
:101990000078012807D12246611CCCB276497448F0
:1019A000FFF7BFFC06E02246611CCCB272497148C9
:1019B000FFF7B7FC052C00D10024714800780128FE
:1019C00008D170A04EF67D730022082100901420EB
:1019D00002F0EBFAFEF72EFFC0E600BF38BD08B5F7
:1019E0004EF67D7002F0B9FE1EA009F099FB2CA006
:1019F00009F096FB67A009F093FB29A009F090FB82
:101A000018A009F08DFB44A04EF67D7300226421DE
:101A100000900A2002F08EFB41A04EF67D7300225A
:101A200064210090084602F085FB69A04EF67D73A4
:101A3000002208210090142002F0B7FA67A04EF6A9
:101A40007D73002218210090142002F0AEFA66A0E7
:101A50004EF67D73002228210090142002F0A5FA92
:101A600064A0CDE02D2D2D2D2D2D2D2D2D2D2D2DA9
:101A70002D2D2D2D2D2D2D2D2D2D2D2D2D2D2D2D96
:101A80002D2D2D2D2D2D2D2D2D2D2D2D2D2D2D2D86
:101A90002D2D2D2D2D2D2D2D2D2D0D0A000000006D
:101AA0002D20202020202020202020202020202029
:101AB0002020202020202020202020202020202026
:101AC0002020202020202020202020202020202016
:101AD00020202020202D0D0A000000002D20202095
:101AE00020202020202020202020202020202020F6
:101AF00020202020B9E2C7BF20C9ABCEC2202020C1
:101B000020202020202020202020202020202020D5
:101B1000202D0D0A00000000C1C1B6C80000000061
:101B2000C9ABCEC200000000B00D00207100002043
:101B300072000020740000207A0000206400002061
:101B40007C0000207D0000207E0000206B6579462F
:101B50006C6167203D3D204B4559305F50524553E5
:101B6000000000009A000020030000207B000020FD
:101B7000820000200F0000200000002085000020CF
:101B80007F000020BCFDD7D4B6AFB5F7B9E2D6D000
:101B9000000000002D2020202020202020202020B8
:101BA00020202020202020202020202020BCD2CD3A
:101BB000A5D7F7D2B52020202020202020202020CB
:101BC0002020202020202020202D0D0A00000000B1
:101BD000BCFDD7F7D2B5CAD8BBA400002020D7F8E7
:101BE000D7CBCCE1D0D100002020B8D0D3A6D2B939
:101BF000B5C600002020D0DDCFA2CCE1D0D10000BE
:101C00004EF67D73002238210090142002F0CDF9A9
:101C1000FEA04EF67D73002248210090142002F0B1
:101C2000C4F9FD480078012808D1FCA04EF67D7368
:101C3000002208210090142002F0B7F9FB48007838
:101C4000012808D1FAA04EF67D73002218210090D9
:101C5000142002F0AAF9FA480078012808D1F9A066
:101C60004EF67D73002228210090142002F09DF989
:101C7000F8480078012808D1F7A04EF67D730022BD
:101C800038210090142002F090F9F74800780128DC
:101C900008D1F6A04EF67D73002248210090142052
:101CA00002F083F953E0F548007820B1F34800785A
:101CB000022800D04CE0FFF730F9F14908700846DF
:101CC0000078012807D008460078022803D008468B
:101CD0000078032800D13BE0E9480078042805D0CB
:101CE000E8488079E849097888422ED0CA480078C7
:101CF000401CC949087008460078022802D00846EE
:101D0000007870B9E1A009F00BFA0020C249087010
:101D1000EAA04EF67D73002208210090142002F004
:101D200044F9BD48007801280BD1E8A009F0F8F982
:101D3000BAA04EF67D73002208210090142002F014
:101D400034F9D0488079D0490870FEF773FDAAE7CE
:101D500000BF08BD08B54EF67D7002F0FEFCAFF284
:101D6000FC2009F0DDF9AFF2C82009F0D9F9E3A0B1
:101D700009F0D6F9AFF2D82009F0D2F9AFF21C3051
:101D800009F0CEF9AFF270204EF67D730022642187
:101D900000900A2002F0CEF9AFF27C204EF67D735F
:101DA000002264210090084602F0C4F9E2A04EF639
:101DB0007D73002208210090142002F0F6F8E1A0C3
:101DC0004EF67D73002218210090142002F0EDF8E9
:101DD000AFF2EC104EF67D73002228210090142003
:101DE00002F0E3F8AFF2F4104EF67D7300223821D2
:101DF0000090142002F0D9F8D5A04EF67D73002291
:101E000048210090142002F0D0F88348007801287F
:101E100008D1D2A04EF67D73002208210090142034
:101E200002F0C3F881480078012808D1CFA04EF60F
:101E30007D73002218210090142002F0B6F880482B
:101E40000078012808D17FA04EF67D73002228215A
:101E50000090142002F0A9F87E480078012808D1EB
:101E60007DA04EF67D73002238210090142002F0F0
:101E70009CF87D480078012808D17CA04EF67D733F
:101E8000002248210090142002F08FF89BE07B484C
:101E9000007820B179480078032800D094E0FFF75B
:101EA0003CF87749087008460078012807D00846B2
:101EB0000078022803D008460078032800D183E088
:101EC0006F480078042805D06E480079AB4909783E
:101ED000884236D055480078401C5449087008465E
:101EE0000078022802D00846007880B90022A4A118
:101EF000A4A001F055F900204C490870A4A04EF6AA
:101F00007D73002218210090142002F04EF84748FB
:101F10000078012811D10022A1A1A4A001F040F96C
:101F200010B9A5A009F0FCF890A04EF67D73002230
:101F300018210090142002F038F8524800798F4997
:101F400008703A48007801283BD14E48D0F8290063
:101F5000A649097888420CD04A4890F829100023F5
:101F600087A2A3A001F04AF9464890F829009F49AA
:101F700008704448D0F82D009F49097888420CD059
:101F8000404890F82D1000237DA29CA001F036F966
:101F90003C4890F82D00984908703A48D0F8310034
:101FA0009849097888420CD0364890F831100023BF
:101FB00073A295A001F022F9324890F831009149BE
:101FC0000870FEF737FC62E700BF08BD08B54EF6A3
:101FD0007D7002F0C2FBAFF2745009F0A1F8AFF2CD
:101FE000405009F09DF88AA009F09AF8AFF25050DD
:101FF00009F096F8AFF2945009F092F8AFF2E84089
:102000004EF67D730022642100901FE12020CDF860
:10201000C2E7CAB1BCE4000068000020BCFDD7F7ED
:10202000D2B5CAD8BBA420BCFD00000069000020C6
:102030002020D7F8D7CBCCE1D0D120BCFD000000C8
:102040006A0000202020B8D0D3A6D2B9B5C620BCE3
:10205000FD0000006C0000202020D0DDCFA2CCE1EC
:10206000D0D120BCFD0000006D0000202020CDF864
:10207000C2E7CAB1BCE420BCFD0000007A00002029
:1020800064000020B00D0020760000202D2D2D2DA5
:102090002D2D2D2D2D2D2D2D2D2D2D2D2D686F6DB3
:1020A00065776F726B5F6F66662D2D2D2D2D2D2D33
:1020B0002D2D2D2D2D2D2D0D0A000000BCFDD7F747
:1020C000D2B5CAD8BBA42020200000002D2D2D2D74
:1020D0002D2D2D2D2D2D2D2D2D2D2D2D2D686F6D73
:1020E00065776F726B5F6F6E2D2D2D2D2D2D2D2D24
:1020F0002D2D2D2D2D2D0D0A000000002D2020202E
:1021000020202020202020202020202020202020CF
:10211000202020202020D7F8D7CB202020202020CE
:1021200020202020202020202020202020202020AF
:10213000202D0D0A000000002020D7F7D2B5CAD804
:10214000BBA40000BCFDD7F8D7CBCCE1D0D10000B8
:102150002020C6C1B1A3CAB1BCE400002020D7F73B
:10216000D2B5CAD8BBA420BCFD000000BCFDD7F886
:10217000D7CBCCE1D0D120BCFD0000007500002001
:1021800030000000706F73747572655F6F66660073
:10219000BCFDD7F8D7CBCCE1D0D120202020000047
:1021A000706F73747572655F4F4B0000706F73745E
:1021B0007572655F6F6E00002D2D2D2D2D2D2D2D2F
:1021C0002D2D2D2D2D2D2D2D2D2D2D2D2D2D2D70FC
:1021D0006F735F6F6E2D2D2D2D2D2D2D2D2D2D2DF2
:1021E0002D2D2D2D2D2D2D2D0A00000077000020E6
:1021F000706F73313A00000078000020706F733206
:102200003A00000079000020706F73333A0000003C
:102210002D202020202020202020202020202020B1
:102220002020202020202020D2B9B5C6C4A3CABDBA
:10223000202020202020202020202020202020209E
:1022400020202020202D0D0A000000000A2001F08F
:1022500071FFAFF234704EF67D730022642100905E
:10226000084601F067FFAFF230104EF67D73002292
:1022700008210090142001F098FEAFF2A0604EF605
:102280007D73002218210090142001F08EFEFEA024
:102290004EF67D73002228210090142001F085FE67
:1022A000AFF2B0604EF67D7300223821009014200A
:1022B00001F07BFEAFF268104EF67D7300224821DC
:1022C0000090142001F071FEF2480078012809D135
:1022D000AFF278104EF67D73002208210090142092
:1022E00001F063FEEC480078012809D1AFF2C0206C
:1022F0004EF67D73002218210090142001F055FE47
:10230000E6480078012808D1E5A04EF67D7300224A
:1023100028210090142001F048FEE54800780128AB
:1023200009D1AFF2CC204EF67D7300223821009007
:10233000142001F03AFEDF480078012809D1AFF2FD
:10234000D4204EF67D73002248210090142001F025
:102350002CFED9A008F0E4FE68E0D948007840B12E
:10236000D7480078042804D005F08CFCD5490860D3
:102370005DE0FEF7D2FDD4490870084600780128D8
:1023800007D008460078022803D0084600780328C2
:1023900000D14CE0CC480078042805D0CB484078E8
:1023A000CB49097888423FD0BC480078401CBB49E3
:1023B000087008460078022802D008460078A0B9C4
:1023C0000022AFF24421C3A000F0EAFE0020B3498E
:1023D0000870C3A008F0A4FECDA04EF67D730022C5
:1023E00028210090142001F0E0FDAC48007801287D
:1023F00013D10022AFF27821C9A000F0D1FE00F085
:10240000EBFDCAA008F08CFEA5A04EF67D7300225D
:1024100028210090142001F0C8FDCFA008F080FE14
:10242000AA484078AA490870FEF704FA95E700BF69
:1024300008BD08B54EF67D7002F08FF9AFF6DC10DE
:1024400008F06EFEAFF6A81008F06AFEC4A008F00F
:1024500067FEAFF6B41008F063FEAFF6F81008F0B0
:102460005FFEAFF64C104EF67D73002264210090A3
:102470000A2001F05FFEAFF658104EF67D73002281
:1024800064210090084601F055FEAFF254304EF63C
:102490007D73002208210090142001F086FDAFF624
:1024A000C4004EF67D73002218210090142001F024
:1024B0007CFDAFF6CC004EF67D7300222821009003
:1024C000142001F072FDB5A04EF67D730022382174
:1024D0000090142001F069FDAFF28C304EF67D7350
:1024E000002248210090142001F05FFD6948007827
:1024F000012809D1AFF29C304EF67D7300220821ED
:102500000090142001F051FD63480078012809D1A2
:10251000AFF2E4404EF67D730022182100901420A3
:1025200001F043FD5D480078012809D1AFF2EC408D
:102530004EF67D73002228210090142001F035FD15
:102540005B480078012808D197A04EF67D730022E1
:1025500038210090142001F028FD56480078012809
:1025600009D1AFF2F8404EF67D7300224821009069
:10257000142001F01AFD6AE05148007820B105F0FE
:1025800081FB5049086063E0FEF7C7FC4E490870C4
:1025900008460078012807D008460078022803D0B2
:1025A00008460078032800D152E047480078042804
:1025B00005D04648007A80490978884245D03C4891
:1025C0000078401C3A4908704048007A7A490978F6
:1025D000884205D03D48007A774908703449087030
:1025E00033480078022802D031480078A8B900208A
:1025F0002F49087071A008F093FD7BA04EF67D7303
:10260000002238210090142001F0CFFC2E480078E1
:10261000042802D100202D4908722548007801289D
:1026200003D02A48007A01280FD173A04EF67D739B
:10263000002238210090142001F0B7FC22480078D5
:10264000042802D1012021490872FEF7F3F893E72C
:1026500000BF08BD08B54EF67D7002F07EF8AFF6FB
:10266000FC3008F05DFDAFF6C83008F059FD66A0FB
:1026700008F056FDAFF6D83008F052FDAFF61C401A
:1026800008F04EFDDEE00000BCFDB8D0D3A6D2B904
:10269000B5C6000068000020690000206A00002024
:1026A000BCFDB8D0D3A6D2B9B5C620BCFD00000091
:1026B0006C0000206D0000206E69676874000000E7
:1026C0007A000020E000002064000020B00D00200F
:1026D000730000206E696768745F6F6666000000B3
:1026E0002D2D2D2D2D2D2D2D2D2D2D2D2D2D2D2D1A
:1026F0002D2D6E696768745F6F66662D2D2D2D2DEB
:102700002D2D2D2D2D2D2D2D2D2D0D0A00000000F0
:10271000BCFDB8D0D3A6D2B9B5C620202020000079
:102720006E696768745F6F6E000000002D2D2D2D9F
:102730002D2D2D2D2D2D2D2D2D2D2D2D2D2D6E694C
:102740006768745F6F6E2D2D2D2D2D2D2D2D2D2D48
:102750002D2D2D2D2D0D0A006E69675F6F6E000007
:102760002D2020202020202020202020202020205C
:1027700020202020202020206F74686572312020C6
:102780002020202020202020202020202020202049
:1027900020202020202D0D0A00000000BCFDD0DDEF
:1027A000CFA2CCE1D0D10000BCFCD0DDCFA2CCE1E7
:1027B000D0D120BCFD0000006E0000202D2D2D2D5D
:1027C0002D2D2D2D2D2D2D2D2D2D2D2D2D2D6F74B0
:1027D000686572312D2D2D2D2D2D2D2D2D2D2D2D6D
:1027E0002D2D2D0D0A000000BCFDD0DDCFA2CCE1C7
:1027F000D0D1202020200000BCFDD0DDCFA2CCE134
:10280000D0D120BCFD0000002D2020202020202041
:1028100020202020202020202020202020202020B8
:102820006F74686572322020202020202020202014
:10283000202020202020202020202020202D0D0AB4
:1028400000000000AFF630504EF67D730022642188
:1028500000900A2001F06EFCAFF63C504EF67D73FE
:10286000002264210090084601F064FCAFF2387049
:102870004EF67D73002208210090142001F095FB94
:10288000AFF6A8404EF67D73002218210090142068
:1028900001F08BFBAFF6B0404EF67D73002228218D
:1028A0000090142001F081FBAFF6B8404EF67D7326
:1028B000002238210090142001F077FBD1A04EF6C1
:1028C0007D73002248210090142001F06EFBD04857
:1028D0000078012809D1AFF27C704EF67D7300229A
:1028E00008210090142001F060FBCA4800780128FC
:1028F00009D1AFF6C4004EF67D7300221821009076
:10290000142001F052FBC4480078012809D1AFF629
:10291000CC004EF67D73002228210090142001F097
:1029200044FBBE480078012809D1AFF6D4004EF62A
:102930007D73002238210090142001F036FBB84846
:102940000078012808D1B7A04EF67D7300224821F7
:102950000090142001F029FB72E0B648007820B105
:1029600005F090F9B44908606BE0FEF7D6FAB34978
:10297000087008460078012807D008460078022829
:1029800003D008460078032800D15AE0AB4800780D
:10299000042805D0AA48407AAA49097888424DD02F
:1029A0009F480078401C9E490870A548407AA54978
:1029B000097888420DD0A248407AA249087008469A
:1029C000007818B901209649087002E00020944967
:1029D000087093480078022802D091480078B8B96E
:1029E00000208F49087098A008F09AFBA1A04EF62D
:1029F0007D73002248210090142001F0D6FA8F4800
:102A00000078042804D101208D4948729D4908703E
:102A100083480078012811D182A04EF67D730022F0
:102A200048210090142001F0C0FA8448007804285E
:102A300004D100208249487292490870FDF7FAFEDD
:102A40008BE700BF08BD10B548F2104001F085FECD
:102A5000AFF6F07008F064FBAFF6BC7008F060FBF6
:102A600089A008F05DFBAFF6C87008F059FB9548E7
:102A700008F056FB3AE06F48007858B16D4800788E
:102A8000052807D000209049087005F0FBF86A4936
:102A900008602CE08C480078012803D11421002024
:102AA000FEF736F989480078012805D148F210422E
:102AB00046210A20FEF779F9FEF72FFA5F490870E0
:102AC0000846007801280BD008460078022807D075
:102AD00008460078032803D008460078042803D16C
:102AE00000207949087002E0FDF7A4FEC3E700BFAB
:102AF00010BD10B54F480078002830D04D48007800
:102B0000082826D2DFE800F02504080C11161B2047
:102B10006F48704908601DE06F486E49086019E011
:102B2000AFF6CF506B49086014E0AFF65F306949EB
:102B300008600FE0AFF2F100664908600AE0AFF20A
:102B40000D706449086005E0AFF2F7406149086024
:102B500000E000BF00BF0020364908704EE0374853
:102B60000078012806D0022812D003281ED004289D
:102B700038D129E05948007800EB4000584901EB72
:102B8000800040785549087000202C4908702AE0E0
:102B90005248007800EB4000514901EB80008078FA
:102BA0004E4908700020254908701CE04B48007809
:102BB00000EB40004A4901EB8000C07847490870AB
:102BC00000201E4908700EE04448007800EB4000E9
:102BD000434901EB80000079404908700020174903
:102BE000087000E000BF00BF3C48007800EB4000E8
:102BF0003B4901EB80008068364908603548006831
:102C0000804710BDBCFCCDF8C2E7CAB1BCE40000EF
:102C100068000020690000206A0000206C0000208D
:102C20006D000020BCFDCDF8C2E7CAB1BCE420BCF9
:102C3000FD0000007A000020E00000206400002079
:102C4000B00D00206F0000202D2D2D2D2D2D2D2DB0
:102C50002D2D2D2D2D2D2D2D2D2D6F74686572325E
:102C60002D2D2D2D2D2D2D2D2D2D2D2D2D2D2D0DB4
:102C70000A000000BCFDCDF8C2E7CAB1BCE42020C8
:102C800020200000D80000202D20202020202020FF
:102C9000202020202020202020202020202020CD87
:102CA000F8C2E7CAB1D6D32020202020202020203F
:102CB000202020202020202020202020202D0D0A30
:102CC00000000000641A000881000020300000208D
:102CD000F116000860000020DF1900085C000020E9
:102CE000A4D2000810B5044644B10021954804F070
:102CF0001BFB0121934804F083F803E00021914875
:102D000004F07EF810BD10B540F225518E4803F056
:102D1000C5F808B38C4803F041F8C4B28B4800886A
:102D2000B0F5806F12DA0021864804F0FDFA87487A
:102D3000008810B90120FFF7D5FF8448018800887A
:102D4000401C824A10808248445405E07F48008835
:102D500040F400407D49088010BD7FB505460C4613
:102D60000121042002F083FEADF80450ADF80040CC
:102D70000020ADF80600ADF802006946714803F086
:102D8000E3FC012211466F4804F055F81E208DF82F
:102D90000C0001208DF80D0002208DF80E0001209E
:102DA0008DF80F0003A802F0D0FA7FBD70B58CB08B
:102DB00006460C4615460121084602F03EFE304606
:102DC00003F0B0F8019402951020039000200490C5
:102DD00005908020069000200790089009904FF4FD
:102DE00080500A9000200B9001A9304603F03CF976
:102DF0000CB070BD10B586B004460121042002F06D
:102E000029FE0121480402F032FE4F4802F086FEFE
:102E10000420ADF8100003208DF8120018208DF862
:102E2000130004A94B4802F059FB0820ADF810002C
:102E300004208DF8130004A9464802F04FFB0094CB
:102E40000020ADF80400ADF80600ADF80800ADF8BC
:102E50000C000C20ADF80A0069463B4802F0A1FEC8
:102E600001228021384802F059FF3B4A3649091DAA
:102E70003A48FFF79BFF0121334802F01EFF012271
:102E800040F22551304802F024FF26208DF814002E
:102E900002208DF8150003208DF8160001208DF812
:102EA000170005A802F051FA41F61F4140F2E73041
:102EB000FFF753FF002025490880FFF713FF06B0F6
:102EC00010BD70B504460D460021204603F0F7F80A
:102ED0002946204603F008F90121204603F0EFF8C7
:102EE00070BD0FB438B505A800901B48009A04992E
:102EF00008F004F90020009000BF184803F0F6F82D
:102F00000028FAD1144808F0D9FAC4B2214613486F
:102F1000FFF7D7FF38BC5DF814FB10B50121094855
:102F200004F037FA60B10948008840F400400749CE
:102F300008800121034804F03DFA0020FFF7D2FE8B
:102F400010BD000000080040004400409C0000202C
:102F50000005002000080140000100208000024020
:102F60000EB50121084602F075FD0221084602F067
:102F7000CBFB0420019000208DF8080010208DF874
:102F8000090001208DF80A0001A803F089FA6846BB
:102F900002F0DBF908208DF8000002208DF8010016
:102FA0008DF8020001208DF80300684602F0CDF98B
:102FB0000EBD10B510480078401C0F490870084637
:102FC0000078022801D1002008700CA008F0A8F8B1
:102FD000042003F0DCFA10BD08B50121102002F036
:102FE00039FD0420ADF8000028208DF80300694663
:102FF000064802F073FA08BD9E00002074686973E9
:103000002069732065786974000000000010014099
:1030100010B540F22551B14802F040FFF8B1AF4879
:1030200002F0BCFEC4B2AE48008800F40040B0B963
:10303000AB480088B0F5167F12DA0021A94804F0E9
:1030400073F9A748008818B90121A64803F0D8FEF3
:10305000A3490888411CA24A1180A3490C5405E0E9
:103060009F48008840F400409D49088010BD10B57D
:1030700086B004460121082002F0ECFC01218804FE
:1030800002F0F5FC954802F049FD4FF48060ADF880
:10309000100003208DF8120018208DF8130004A9E9
:1030A000924802F01BFA4FF40060ADF810000420C3
:1030B0008DF8130004A98D4802F010FA0094002046
:1030C000ADF80400ADF80600ADF80800ADF80C004E
:1030D0000C20ADF80A006946804802F062FD01212B
:1030E0007E4802F0EAFD012240F225517B4802F0C1
:1030F000F0FD27208DF8140002208DF81500032024
:103100008DF8160001208DF8170005A802F01DF9B2
:1031100041F61F41632000F01AF900207049088031
:103120000021704803F06CFE06B010BD0FB438B536
:1031300005A800906E48009A049907F0DFFF002070
:1031400000906B4808F0BAF985B200240DE000BF8A
:103150004021624802F08CFE0028F9D06448015DED
:103160005E4802F017FE601C84B2AC42EFDB38BC54
:103170005DF814FB70B5044600255948008800F43A
:10318000004058B1002056490988C1F30E01564A43
:1031900050542146104608F07FF90546284670BD78
:1031A0002DE9F04106460D461446002700204C4903
:1031B000088031464FA0FFF7B9FFE5B1DCB113E05D
:1031C0000A2002F000F84648008800F4004058B198
:1031D0002846FFF7CFFF20B1294648A007F0A0FFFF
:1031E00006E000203E490880601E80B2041EE7D140
:1031F00000BF04B901273846BDE8F0812DE9F04150
:1032000006460F4614461D464FF00008002034497C
:1032100008803A4631463CA0FFF788FFECB1E5B1A3
:1032200013E00A2001F0CFFF2D48008800F4004091
:1032300058B12046FFF79EFF20B121462FA007F08E
:103240006FFF06E0002026490880681E80B2051E38
:10325000E7D100BF0DB94FF001084046BDE8F0814D
:103260002DE9F04F95B005460E4617469846DDE924
:103270001E9A4FF0000B029503960497CDF8148028
:10328000CDF81890CDF81CA01548008800F4004037
:1032900010B3002012490988C1F30E01124A50549C
:1032A0000F490880012415E001A850F824100E48A9
:1032B00008F0F2F88346BBF1000F09D0214614A0B4
:1032C00007F02EFF4FF0000B204615B0BDE8F08F41
:1032D000601CC4B2062CE7DD0020F6E70048004081
:1032E000A00000200014004000090020000C014054
:1032F000580B002025730D0A0000000061636B3A33
:1033000025730D0A00000000257325640D0A0000D6
:103310002D2D2D2D2D2D25642D2D2D2D2D2D2D2DAE
:103320002D00000010B50121694804F032F868B1A1
:103330006848008840F400406649088001216448DC
:1033400004F038F80021624803F05AFD10BD7FB543
:1033500005460C460121202002F089FBADF80450FF
:10336000ADF800400020ADF80600ADF80200694657
:10337000574803F0E9F901221146554803F05BFD77
:103380000121534803F03CFD37208DF80C0000204C
:103390008DF80D0002208DF80E0001208DF80F0031
:1033A00003A801F0D2FF7FBD7FB505460C46012181
:1033B000022002F05CFBADF80850ADF8044000209C
:1033C000ADF80A00ADF8060001A9434803F0BCF9C6
:1033D00001221146404803F02EFD1D208DF800000B
:1033E00000208DF8010003208DF8020001208DF8E7
:1033F0000300684601F0A9FF0121374803F000FDF2
:103400007FBD10B50121344803F0C3FF28B101216D
:10341000314803F0CFFF04F0F7FC10BD7FB505463F
:103420000C460121082002F022FBADF80850ADF84F
:1034300004400020ADF80A00ADF8060001A92748B5
:1034400003F082F901221146244803F0F4FC3220F3
:103450008DF8000001208DF8010003208DF8020096
:1034600001208DF80300684601F06FFF01211B4821
:1034700003F0C6FC7FBD10B50121184803F089FF99
:1034800028B30121154803F095FF15480088401C1A
:10349000134908800846008840F2DC51884203DD69
:1034A00000200F4908800AE00E48007838B90C481F
:1034B0000088B0F5966F02DB01200A4908700A48BF
:1034C000007820B109480078401C0849087010BDF8
:1034D00000140040A000002000040040000C004048
:1034E0002C0000202E000020540000205500002059
:1034F00010B586B004460121C80402F0B8FA0121D3
:10350000102002F0A7FA4FF48060ADF814000320F9
:103510008DF8160018208DF8170005A92C4801F029
:10352000DDFF4FF40060ADF8140004208DF81700A3
:1035300005A9274801F0D2FF34208DF800000320B0
:103540008DF801008DF8020001208DF80300684617
:1035500001F0FBFE01940020ADF80800ADF80A0070
:10356000ADF80C00ADF810000820ADF80E0001A970
:10357000184802F016FB0121164802F09EFB06B027
:1035800010BD70B505460E46002400BF1DE0285D45
:1035900020B900210F4802F0FDFB03E0295D0D4832
:1035A00002F0F8FB012001F00EFE701EA0420AD1CD
:1035B0000A21084802F0EEFB012001F004FE0D2173
:1035C000044802F0E7FB601CC4B2B442DFDB70BD0C
:1035D00000100140004C004010B56448006820F025
:1035E000F000624908600846006840F0300008605A
:1035F00000205F490860142001F0E5FD01205D49CD
:10360000C1F8A4011E2001F0BAFD10BD10B50024C0
:103610005648006820F0F0005449086008460068E9
:1036200040F08000086004E0601CC4B2012001F09A
:10363000A6FD4F488038006808B1642CF4DB642C88
:1036400001DB012010BD002404E0601CC4B2012095
:1036500001F095FD46488038006808B9642CF4DB19
:10366000642C01DB0120EDE70020EBE710B500241E
:1036700004E0601CC4B2012001F081FD3C488038A8
:10368000006808B1642CF4DB002404E0601CC4B2C0
:10369000012001F074FD36488038006808B9642CB8
:1036A000F4DB282001F06BFD31488038006808B158
:1036B000012010BD0020FCE770B50024002506E0C5
:1036C0006006040EFFF7D2FF0443681CC5B2082D44
:1036D000F6DB204670BD7CB505460E46FFF77CFF45
:1036E000FFF794FFF8B9002405E0FFF7E5FF0DF8B8
:1036F0000400601CC4B2052CF7DB9DF800009DF8A7
:10370000011008449DF8021008449DF80310084475
:103710009DF80410884208D19DF8000030709DF893
:103720000200287001E001207CBD0020FCE708B504
:103730000121082002F08EF94FF40070ADF800006E
:1037400010208DF8030003208DF802006946074819
:10375000001F01F0C3FE4FF400710448001F01F088
:103760006AFFFFF739FFFFF751FF08BD040C014066
:10377000A48121420080214208B50121082002F0E5
:1037800069F910208DF8030003208DF80200C02095
:10379000ADF800006946AF4801F0A0FE08BD002169
:1037A000052006E00A2100BF0A1EA1F1010399B21B
:1037B000FAD1021EA0F1010398B2F3D170470021A3
:1037C00007E042F6E06100BF0A1EA1F1010399B2D1
:1037D000FAD1021EA0F1010398B2F2D1704710B5E0
:1037E00040219C4801F027FF80219A4801F023FFE7
:1037F000FFF7D5FF4021974801F01FFFFFF7CFFFEC
:103800008021944801F019FF10BD10B54021914866
:1038100001F013FF80218F4801F00DFFFFF7BFFF7C
:1038200040218C4801F007FFFFF7B9FF10BD38B504
:10383000044610208DF8030003208DF8020040207C
:10384000ADF800006946834801F048FE012C04D120
:103850004021804801F0EFFE06E024B940217D4878
:1038600001F0EBFE00E038BD80217A4801F0E3FE74
:10387000FFF795FF8021774801F0DFFEFFF78FFF0C
:1038800000BFF0E708B548208DF8030003208DF84D
:1038900002004020ADF8000069466E4801F01EFEAF
:1038A00080216C4801F0C7FEFFF779FF402169488D
:1038B00001F0A7FE012802D16749086002E000205C
:1038C000654908608021634801F0B7FEFFF767FF94
:1038D00010208DF8030069465E4801F0FFFD5E4848
:1038E000006808BD70B5044600251BE004F08000A8
:1038F00020B14021574801F09EFE03E04021554889
:1039000001F09BFE6006040E8021524801F093FEF8
:10391000FFF745FF80214F4801F08FFEFFF73FFF83
:10392000681CC5B2082DE1DBFFF7ACFF70BDF8B530
:10393000002448208DF803004020ADF8000003204B
:103940008DF802006946434801F0C8FD4021414816
:1039500001F071FE002519E06006040E80213D484B
:1039600001F069FEFFF71BFF40213A4801F049FED4
:10397000012801D1012600E000263443802135488A
:1039800001F05BFEFFF70BFF681CC5B2082DE3DBFF
:1039900010208DF8030069462E4801F09FFD204657
:1039A000F8BD10B50446FFF71AFF4620FFF79AFF4F
:1039B0002046FFF797FFFFF728FF10BD10B5FFF770
:1039C000DBFE0120FFF7EDFF1020FFF7EAFF10BD3F
:1039D00010B5FFF704FF4720FFF784FF00240EE037
:1039E000FFF7A5FF1D490855032C03D10120FFF760
:1039F0001EFF02E00020FFF71AFF601CC4B2032C78
:103A0000EEDBFFF702FF0520FFF7D9FE10BD2DE921
:103A1000F0470446FFF7DCFF1048007810490860C3
:103A20000E484078096800EB01200D4908600846FF
:103A3000006809F0C7FA814609F054F907464FF0CB
:103A40003332084B08F074FF054609F0C9F82080AE
:103A5000BDE8F087000C0140B0000020A400002069
:103A6000AC0000203333F33F30B5014601F01F04B2
:103A7000C1F34513CA0AE50205EB43151544A8B284
:103A800030BD2DE9F04706460F4690469A46002481
:103A900045464FEA4800C0F103094AE07A1991B25D
:103AA000321990B2524600F095FF7A1991B2321B4A
:103AB00090B2524600F08EFF7A1B91B2321990B24A
:103AC000524600F087FF7A1B91B2321B90B25246E9
:103AD00000F080FF3A1991B2721990B2524600F08C
:103AE00079FF3A1991B2721B90B2524600F072FF00
:103AF0003A1B91B2721990B2524600F06BFF3A1B1A
:103B000091B2721B90B2524600F064FFB9F1000FFF
:103B100005DA042000FB049000F1060907E0601BB1
:103B2000042101FB009000F10A09681E85B2601CA7
:103B300084B2AC42B2DBAC4237D17A1991B23219BD
:103B400090B2524600F046FF7A1991B2321990B203
:103B5000524600F03FFF7A1B91B2321990B25246A2
:103B600000F038FF7A1B91B2321B90B2524600F03F
:103B700031FF3A1991B2721990B2524600F02AFF01
:103B80003A1991B2721B90B2524600F023FF3A1BD1
:103B900091B2721990B2524600F01CFF3A1B91B2DA
:103BA000721B90B2524600F015FFBDE8F0872DE978
:103BB000FF4F83B0804689464946404600F000FFEB
:103BC0000598A0EB08050698A0EB0906002D02DB7E
:103BD0000120029003E04FF0FF3002906D42002E72
:103BE00002DB0120019003E04FF0FF3001907642AC
:103BF0004FEA450A4FEA460BB54219DDABEB050427
:103C0000002712E049464046109A00F0E3FE002CDF
:103C100005DBA4EB0A04019848441FFA80F95C44D0
:103C2000029840441FFA80F87F1CAF42EADD18E09A
:103C3000AAEB0604002712E049464046109A00F01D
:103C4000C9FE002C05DBA4EB0B04029840441FFACC
:103C500080F85444019848441FFA80F97F1CB74209
:103C6000EADD07B0BDE8F08F2DE9F84305460C46C4
:103C700016461F46DDF820804EF67D700090A8198C
:103C800082B2234621462846FFF791FF42F665108F
:103C900004F1010CBC441FFA8CF305EB060CACF1EB
:103CA000010C1FFA8CF204F1010C1FFA8CF105EBE8
:103CB000060CACF1010C00901FFA8CF0FFF777FFB7
:103CC00042F665100090E01983B2A81982B2E0199B
:103CD00081B22846FFF76BFF4EF67D700090E01929
:103CE00083B22A4621462846FFF761FF04F1010C02
:103CF000BC44ACF1020C1FFA8CF305F1010CB44486
:103D0000ACF1020C1FFA8CF204F1010C1FFA8CF1D9
:103D100005F1010C1FFA8CF0CDF80080FFF747FF8A
:103D2000BDE8F8832DE9F84305460C4616461F46C4
:103D3000DDF82080B8F1000F39D14EF67D7000908B
:103D4000A81982B2234621462846FFF730FF42F6E3
:103D5000651004F1010CBC441FFA8CF305EB060C52
:103D6000ACF1010C1FFA8CF204F1010C1FFA8CF17A
:103D700005EB060CACF1010C00901FFA8CF0FFF77C
:103D800016FF42F665100090E01983B2A81982B2BE
:103D9000E01981B22846FFF70AFF4EF67D700090C9
:103DA000E01983B22A4621462846FFF700FFB8F102
:103DB000010F39D142F665100090A81982B223464E
:103DC00021462846FFF7F3FE4EF67D7004F1010C04
:103DD000BC441FFA8CF305EB060CACF1010C1FFA86
:103DE0008CF204F1010C1FFA8CF105EB060CACF11E
:103DF000010C00901FFA8CF0FFF7D9FE4EF67D7093
:103E00000090E01983B2A81982B2E01981B2284665
:103E1000FFF7CDFE42F665100090E01983B22A4606
:103E200021462846FFF7C3FEB8F1020F39D14FF6FD
:103E3000FF700090A81982B2234621462846FFF75A
:103E4000B6FE4FF6FF7004F1010CBC441FFA8CF370
:103E500005EB060CACF1010C1FFA8CF204F1010C1D
:103E60001FFA8CF105EB060CACF1010C00901FFA67
:103E70008CF0FFF79CFE4FF6FF700090E01983B2C4
:103E8000A81982B2E01981B22846FFF790FE4FF6DA
:103E9000FF700090E01983B22A4621462846FFF7BA
:103EA00086FEBDE8F883F8B504460D4616461F4663
:103EB00044F208202B463246294600902046FFF760
:103EC00076FE48F210406A1C93B291B2621C0090D8
:103ED00090B23246FFF76BFE44F208203B46224682
:103EE000294600902046FFF762FE48F21040631C0E
:103EF0009AB26B1C99B2631C009098B23B46FFF7D4
:103F000056FE4FF6FF703B4632463946009020463B
:103F1000FFF74DFE4FF6FF703B46324629460090B4
:103F20003046FFF744FEF8BDF8B506460F46144686
:103F30001D464FF6FF703B462246394600903046FC
:103F4000FFF735FE4FF6FF702B463246394600909C
:103F50003046FFF72CFE48F210406A1E93B291B231
:103F6000721C009090B22246FFF721FE44F2082016
:103F70002B462246294600903046FFF718FE48F2AD
:103F80001040631E9AB27B1C99B2631E009098B2D7
:103F90002B46FFF70CFE44F208202B4622463946FA
:103FA00000902046FFF703FEF8BD2DE9F84F0746C5
:103FB000884693469A46DDF828900097B3E099F832
:103FC000000080283DDA99F800600D2E05D1009F91
:103FD00008F110001FFA80F830E0202E03DDA6F172
:103FE000200086B200E00026002422E000251CE02C
:103FF00004EB0610FE49085C80212941084040B1CD
:1040000008EB040291B27A1990B25A4600F0E2FC31
:1040100009E0D34507D008EB040291B27A1990B2B7
:10402000524600F0D7FC681CC5B2082DE0DB601CCE
:10403000C4B2102CDADB07F1080087B209F10109DC
:1040400071E0002668E006EB0610EA4911F810005E
:1040500099F8001088425DD106EB0610E54901EBA6
:104060004000407899F80110884253D100244FE075
:10407000002520E006EB0610DE4901EB4000801C25
:1040800010F8141080202841014041B108EB0402CF
:1040900091B27A1990B25A4600F09CFC09E0D345DF
:1040A00007D008EB040291B27A1990B2524600F0A0
:1040B00091FC681CC5B2082DDCDB002524E006EB72
:1040C0000610CC4901EB4000801C012101EB4401AA
:1040D000405C80212941084048B108EB040291B2BC
:1040E0007A19083290B25A4600F074FC0AE0D345BF
:1040F00008D008EB040291B27A19083290B2524605
:1041000000F068FC681CC5B2082DD8DB601CC4B286
:10411000102CADDB701C86B2502E94DB09F1020925
:1041200007F1100087B299F8000000287FF447AF2C
:10413000BDE8F88F2DE9F05F0646884693469A461B
:10414000DDF82890E2E099F80000802835DA99F847
:104150000070202F03DDA7F1200087B200E00027C8
:10416000002522E000241CE005EB0710A049095CB3
:1041700080202041014041B108EB050291B2321983
:1041800090B25A4600F026FC09E0D34507D008EB70
:10419000050291B2321990B2524600F01BFC601C2D
:1041A000C4B2082CE0DB681CC5B2102DDADB09F1C3
:1041B000010906F1080086B2A8E000279EE007EB9F
:1041C000870000EB47108C4911F8100099F8001097
:1041D00088427CD107EB870000EB4710864901EB52
:1041E0004000407899F801108842F2D1002580E023
:1041F000002423E007EB870000EB47107E4901EB2A
:104200004000801C05EB4501405C802121410840B5
:1042100040B108EB050291B2321990B25A4600F053
:10422000D9FB09E0D34507D008EB050291B232195A
:1042300090B2524600F0CEFB601CC4B2082CD9DB11
:10424000002426E007EB870000EB47106A4901EBEA
:104250004000801C05EB4501491C405C8021214148
:10426000084048B108EB050291B23219083290B209
:104270005A4600F0AFFB0AE0D34508D008EB050230
:1042800091B23219083290B2524600F0A3FB601C82
:10429000C4B2082CD6DB002427E007EB870000EB34
:1042A0004710554901EB4000801C05EB4501891C76
:1042B000405C80212141084050B108EB050291B2D9
:1042C0003219103290B25A4600F084FB0BE013E032
:1042D000D34508D008EB050291B23219103290B2E2
:1042E000524600F077FB601CC4B2082CD5DB681C7A
:1042F000C5B2182DFFF67CAF781C87B2142FFFF6DD
:104300005EAF09F1020906F1180086B299F80000C3
:1043100000287FF418AFBDE8F09F2DE9F05F074655
:10432000884692469946002531E000242BE0334927
:104330000A9801EBC01000EB850010F804B00026CD
:104340001DE08020304100EA0B0050B108EB05026F
:1043500091B207EBC402324490B2524600F03AFBED
:104360000BE0CA4509D008EB050291B207EBC40285
:10437000324490B24A4600F02DFB701CC6B2082EA3
:10438000DFDB601CC4B2042CD1DB681CC5B2202D5D
:10439000CBDBBDE8F09F2DE9F04780468946154606
:1043A0001E46DDF820A04FF6FF7000F0D6F909EBAD
:1043B0000600401E83B208EB0500401E82B249464B
:1043C000404600F09FF900240FE0012000EB44007C
:1043D0001AF800704FF6FF7000EA07271AF8140069
:1043E0000743384600F05CF9641C05FB06F007E063
:1043F0000CD400087EE100089CE50008FDD9000807
:10440000A042E2DCBDE8F08708B54FF6FF7000F08F
:10441000A4F9714864236322002100901C20FFF757
:10442000BAFF6EA04FF6FF730022642100901120A6
:10443000FFF780FE08BD2DE9FC5F074688469346DE
:104440009A46DDF83090002001900097BBE001987B
:10445000022800DBBCE099F80000802841DA99F8D6
:1044600000600D2E05D1009F08F110001FFA80F8A2
:1044700030E0202E03DDA6F1200086B200E0002609
:10448000002422E000251CE004EB06105649095CDC
:1044900080202841014041B108EB040291B27A1911
:1044A00090B25A4600F096FA09E0D34507D008EBDF
:1044B000040291B27A1990B2524600F08BFA681C4D
:1044C000C5B2082DE0DB601CC4B2102CDADB07F1AA
:1044D000080087B209F101090198401CC0B201909F
:1044E00071E0002668E006EB0610404911F8100064
:1044F00099F8001088425DD106EB06103B4901EBAC
:104500004000407899F80110884253D100244FE0D0
:10451000002520E006EB0610344901EB4000801C2A
:1045200010F8141080202841014041B108EB04022A
:1045300091B27A1990B25A4600F04CFA09E0D3458C
:1045400007D008EB040291B27A1990B2524600F0FB
:1045500041FA681CC5B2082DDCDB002524E006EB1F
:104560000610224901EB4000801C012101EB4401AF
:10457000405C80212941084048B108EB040291B217
:104580007A19083290B25A4600F024FA0AE0D3456C
:1045900008D008EB040291B27A19083290B2524660
:1045A00000F018FA681CC5B2082DD8DB601CC4B234
:1045B000102CADDB701C86B2502E94DB09F1020981
:1045C00007F1100087B299F8000000287FF43FAF90
:1045D00000BFBDE8FC9F0000CAE80008D1A7B6F8FC
:1045E000D6AAB2BBD7E300000CD400087EE10008D5
:1045F00008B50121202001F02DFA4FF47C50ADF8D0
:10460000000003208DF8020010208DF80300694699
:10461000F84800F063FF08BD0021082118E000F011
:1046200080022AB14FF48052F24B10331A6004E03A
:104630004FF48052EF4B14331A604FF40052ED4B9D
:1046400014331A601B1F1A604206100E4A1ED1B2A4
:104650000029E4DC704710B504464FF40070E549CA
:1046600014310860400008602046FFF7D5FF4FF482
:104670000070E0491031086010BD10B504464FF4D9
:104680000070DC49143108604000091F08602046B2
:10469000FFF7C2FF4FF40070D6491031086010BD1B
:1046A00010B504464FF40070D24914310860400040
:1046B000091F08602012FFF7AFFFE0B2FFF7ACFF61
:1046C0004FF40070CB491031086010BD30B505467D
:1046D0000C462846FFF7BFFF2046FFF7CEFF30BD50
:1046E00010B54FF40060C34914310860642000F035
:1046F0006AFD4FF40060BF4910310860322000F0BD
:1047000062FD10BDF0B504460D4616461F462A2030
:10471000FFF7A1FF0020FFF7B0FFA11CC8B2FFF711
:10472000ACFF0020FFF7A9FFB11CC8B2FFF7A5FF3F
:104730002B20FFF790FF0020FFF79FFFA91CC8B2B6
:10474000FFF79BFF0020FFF798FFB91CC8B2FFF7E7
:1047500094FF2C20FFF77FFFF0BD70B506467F2346
:104760009F2200210846FFF7CDFF2C20FFF773FFA3
:10477000002408E0002503E03046FFF791FF6D1CA0
:10478000802DF9D3641CA02CF4D370BD10B5FFF7B5
:104790002FFFFFF7A5FF1120FFF75DFF782000F046
:1047A00012FDB120FFF757FF0120FFF766FF2C2015
:1047B000FFF763FF2D20FFF760FFB220FFF74BFFED
:1047C0000120FFF75AFF2C20FFF757FF2D20FFF79E
:1047D00054FFB320FFF73FFF0120FFF74EFF2C20CF
:1047E000FFF74BFF2D20FFF748FF0120FFF745FFA4
:1047F0002C20FFF742FF2D20FFF73FFFB420FFF7EB
:104800002AFF0720FFF739FFC020FFF724FFA2206F
:10481000FFF733FF0220FFF730FF8420FFF72DFF63
:10482000C120FFF718FFC520FFF727FFC220FFF7C1
:1048300012FF0A20FFF721FF0020FFF71EFFC32011
:10484000FFF709FF8A20FFF718FF2A20FFF715FF5F
:10485000C420FFF700FF8A20FFF70FFFEE20FFF7CD
:104860000CFFC520FFF7F7FE0E20FFF706FF3620EE
:10487000FFF7F1FEA020FFF700FFE020FFF7EBFEBF
:104880000F20FFF7FAFE1A20FFF7F7FE0F20FFF7C1
:10489000F4FE1820FFF7F1FE2F20FFF7EEFE282090
:1048A000FFF7EBFE2020FFF7E8FE2220FFF7E5FEF2
:1048B0001F20FFF7E2FE1B20FFF7DFFE2320FFF79C
:1048C000DCFE3720FFF7D9FE0020FFF7D6FE0720D9
:1048D000FFF7D3FE0220FFF7D0FE1020FFF7CDFE3A
:1048E000E120FFF7B8FE0F20FFF7C7FE1B20FFF700
:1048F000C4FE0F20FFF7C1FE1720FFF7BEFE3320D6
:10490000FFF7BBFE2C20FFF7B8FE2920FFF7B5FE0E
:104910002E20FFF7B2FE3020FFF7AFFE3020FFF76A
:10492000ACFE3920FFF7A9FE3F20FFF7A6FE0020CE
:10493000FFF7A3FE0720FFF7A0FE0320FFF79DFE71
:104940001020FFF79AFE2A20FFF785FE0020FFF7D0
:1049500094FE0020FFF791FE0020FFF78EFE7F20DF
:10496000FFF78BFE2B20FFF776FE0020FFF785FE7A
:104970000020FFF782FE0020FFF77FFE9F20FFF759
:104980007CFEF020FFF767FE0120FFF776FEF620A1
:10499000FFF761FE0020FFF770FE3A20FFF75BFE95
:1049A0000520FFF76AFE2920FFF755FE4FF48070BF
:1049B0001049103108604EF67D70FFF7CEFE10BD35
:1049C00030B504460D462B46224629462046FFF7C1
:1049D00099FE30BD70B504460D461646681C83B27C
:1049E000601C82B229462046FFF78CFE3046FFF756
:1049F00057FE70BD0014014060B505460E463146B5
:104A00002846FFF7DDFFE0B2FFF737FE204660BD26
:104A100008B50121082001F01DF81820ADF80000AC
:104A200010208DF8030003208DF802006946FB4832
:104A300000F054FD08BD10B50120F9490860F9499E
:104A4000C1F8900100F09BFB0020F54908600120AF
:104A500000F095FB0020F349C1F8900110BD10B59E
:104A60000020EF49091D0860EE49C1F88C010120C2
:104A700000F085FB0120EA49091D0860E949C1F8F9
:104A80008C0100F07CFB10BD70B50446002517E0DA
:104A900004F0800018B10120E149086002E0002024
:104AA000DF4908600120DE49091D086000F067FB4E
:104AB0000020DC49C1F890016006040E681CC5B2F4
:104AC000082DE5DB0120D6490860D649C1F89001E0
:104AD00000F055FB0020D249091D086070BD10B5DB
:104AE0000446FFF7A8FF7820FFF7CEFF4020FFF72E
:104AF000CBFF2046FFF7C8FFFFF7B1FF10BD10B591
:104B00000446FFF798FF7820FFF7BEFF0020FFF76D
:104B1000BBFF2046FFF7B8FFFFF7A1FF10BD70B540
:104B200004460D4605F1B001C8B2FFF7E8FF1021B9
:104B300041EA1410FFF7E3FF04F00F0141F0010018
:104B4000FFF7DDFF70BD70B50646002415E004F1E7
:104B5000B001C8B2FFF7D3FF0120FFF7D0FF10204C
:104B6000FFF7CDFF002504E03046FFF7B8FF681CD3
:104B7000C5B2802DF8DB601CC4B2082CE7DB70BD29
:104B800070B5002415E004F1B001C8B2FFF7B7FF1B
:104B90000120FFF7B4FF1020FFF7B1FF002504E06C
:104BA0000020FFF79CFF681CC5B2802DF8DB601C5D
:104BB000C4B2082CE7DB70BD10B58D20FFF79FFF56
:104BC0001020FFF79CFFAE20FFF799FF10BD10B536
:104BD0008D20FFF794FF1420FFF791FFAF20FFF720
:104BE0008EFF10BD10B54FF4FA7000F0ECFAAE2055
:104BF000FFF785FF0020FFF782FF1020FFF77FFF00
:104C00004020FFF77CFF8120FFF779FFFF20FFF7AF
:104C100076FFA120FFF773FFC820FFF770FFA620E3
:104C2000FFF76DFFA820FFF76AFF3F20FFF767FF40
:104C3000D320FFF764FF0020FFF761FFD520FFF7C7
:104C40005EFF8020FFF75BFFD920FFF758FFF120C0
:104C5000FFF755FFDA20FFF752FF1220FFF74FFF53
:104C6000DB20FFF74CFF4020FFF749FF2020FFF734
:104C700046FF0220FFF743FF8D20FFF740FF14207F
:104C8000FFF73DFFA420FFF73AFFA620FFF737FF0D
:104C9000AF20FFF734FF0020FFF755FF0021084643
:104CA000FFF73DFF10BD10B50246012000E0504364
:104CB0000B1EA1F10104E1B2F9D110BD2DE9F041C3
:104CC00006460C4617464FF000080025A7F12000C5
:104CD00000F0FF087F2E02DD0026A01CC4B2601C7D
:104CE000C1B23046FFF71BFF002509E008EB480181
:104CF0004D4A02EB4101485DFFF7F1FE681CC5B269
:104D0000062DF3DBBDE8F0812DE9FF5F07469146F4
:104D10001D460E9E4FF0000A002433E0281B401E63
:104D2000C1B20A20FFF7BFFFB9FBF0F00A21B0FBC8
:104D3000F1F201FB1208BAF1000F13D1681EA04274
:104D400010DDB8F1000F0BD1B34606EBDB71491053
:104D500001FB0471C8B220220199FFF7AFFF0FE0F9
:104D60004FF0010AB34606EBDB71491001FB0471F9
:104D7000C8B208F13001CAB20199FFF79FFF00BF26
:104D8000601CC4B2AC42C9DBBDE8FF9F2DE9F0470F
:104D90000446884615464FF000090026002720E00B
:104DA000E85D203800F0FF097E2C04DD002408F1C6
:104DB000010000F0FF0841462046FFF7B0FE002644
:104DC00009E009EB4901184A02EB4101885DFFF750
:104DD00086FE701CC6B2062EF3DBA01DC4B2781C82
:104DE000C7B2E85D0028DBD1BDE8F0872DE9F047C8
:104DF00006460F46904600250024A14639E018F8E3
:104E000009002038C5B2782E02DD0026781CC7B212
:104E100039463046FFF783FE00240FE0000C0140C6
:104E20008C81214200802142EA74010804EB0511C3
:104E3000C14A505CFFF753FE601CC4B2082CF5DB7E
:104E4000781CC1B23046FFF76AFE002408E004EB8C
:104E500005110831B84A505CFFF741FE601CC4B22E
:104E6000082CF4DB06F10800C6B209F1010000F0DD
:104E7000FF0918F809000028C1D1BDE8F0872DE925
:104E8000F04180460E46174600247D0131464046DB
:104E9000FFF745FE00BF06E0A849485DFFF71FFE8B
:104EA0006D1C601CC4B2102CF6DB701CC1B24046F5
:104EB000FFF735FE002406E0A049485DFFF70FFE2E
:104EC0006D1C601CC4B2102CF6DBBDE8F0812DE92E
:104ED000F04180460E4617460024BD01314640464B
:104EE000FFF71DFE00BF06E09549485DFFF7F7FD9F
:104EF0006D1C601CC4B2102CF6DB701CC1B24046A5
:104F0000FFF70DFE002406E08D49485DFFF7E7FD41
:104F10006D1C601CC4B2102CF6DBB01CC1B2404644
:104F2000FFF7FDFD002406E08549485DFFF7D7FD4A
:104F30006D1C601CC4B2102CF6DBF01CC1B24046E4
:104F4000FFF7EDFD002406E07D49485DFFF7C7FD52
:104F50006D1C601CC4B2102CF6DBBDE8F0812DE99D
:104F6000F04180460E4617460024FD01314640467A
:104F7000FFF7D5FD00BF06E07249485DFFF7AFFDC2
:104F80006D1C601CC4B2202CF6DB701CC1B2404604
:104F9000FFF7C5FD002406E06A49485DFFF79FFD65
:104FA0006D1C601CC4B2202CF6DBB01CC1B24046A4
:104FB000FFF7B5FD002406E06249485DFFF78FFD6D
:104FC0006D1C601CC4B2202CF6DBF01CC1B2404644
:104FD000FFF7A5FD002406E05A49485DFFF77FFD75
:104FE0006D1C601CC4B2202CF6DBBDE8F0812DE9FD
:104FF000F04180460E46174600BF07EB470005020A
:1050000031464046FFF78BFD002406E04E49485DDF
:10501000FFF765FD6D1C601CC4B2802CF6DB701CB4
:10502000C1B24046FFF77BFD002406E04649485DDB
:10503000FFF755FD6D1C601CC4B2802CF6DBB01C64
:10504000C1B24046FFF76BFD002406E03E49485DD3
:10505000FFF745FD6D1C601CC4B2802CF6DBF01C14
:10506000C1B24046FFF75BFD002406E03649485DCB
:10507000FFF735FD6D1C601CC4B2802CF6DB301DC3
:10508000C1B24046FFF74BFD002406E02E49485DC3
:10509000FFF725FD6D1C601CC4B2802CF6DB701D73
:1050A000C1B24046FFF73BFD002406E02649485DBB
:1050B000FFF715FD6D1C601CC4B2802CF6DBBDE84B
:1050C000F08170472DE9F05F06460F4690461C467A
:1050D000DDF828A04FF0000BE11704EB5171C91067
:1050E000A4EBC10131B92046E11704EB5171C1F3C2
:1050F000C70506E02046E11704EB5171C910491CB1
:10510000CDB23D4614E029463046FFF708FDB146D2
:105110000AE059460BF1010B1AF80100FFF7DFFC1A
:1051200009F1010000F0FF09C145F2DB681CC5B2BE
:10513000A542E8DBBDE8F09F12770108CA680108C4
:10514000027D0108C27F01084281010810B56FF09D
:10515000040000F044F92E4800682E49B0FBF1F03D
:105160002D4908700846007800EB4001C1EBC010E3
:105170004FF6FF7101EAC0002849088010BD0146C2
:10518000254A12784A434FF0E0235A6100229A617F
:105190001A46126942F001021A6100BF4FF0E02284
:1051A000106900F001021AB100F48032002AF5D033
:1051B0004FF0E022126922F001024FF0E0231A6161
:1051C00000229A6170470146144A12884A434FF000
:1051D000E0235A6100229A611A46126942F00102E4
:1051E0001A6100BF4FF0E022106900F001021AB10D
:1051F00000F48032002AF5D04FF0E022126922F04C
:1052000001024FF0E0231A6100229A61704700000A
:105210001800002000127A00B4000020B600002020
:1052200000BF704700BF344A128802F04002002AD3
:10523000F9D0C2B2304B1B1D1A80704710B586B032
:105240000446012144F2040000F004FC4FF4007015
:10525000ADF8140003208DF8160018208DF8170003
:1052600005A9264800F03AF94FF48060ADF8140023
:1052700004208DF8170005A9204800F02FF92520FB
:105280008DF8000003208DF801008DF80200012048
:105290008DF80300684600F058F801940020ADF83E
:1052A0000800ADF80A00ADF80C00ADF810000C20B5
:1052B000ADF80E0001A9104800F073FC012240F285
:1052C00025510D4800F005FD01210B4800F0F5FCCB
:1052D00006B010BD08B540F22551074800F0DEFDCC
:1052E00040B1054800F05AFDC0B200900121684667
:1052F00002F07AFE08BD00000038014000080140BD
:105300000948804709480047FEE7FEE7FEE7FEE759
:10531000FEE7FEE7FEE7FEE7FEE7FEE70448054995
:10532000054A064B704700002F05000831010008B0
:10533000081200200818002008140020081400207B
:1053400031490143314A1160704770B50021002393
:105350000F22C47804B32D4C246804F4E064C4F52F
:10536000E064210AC1F10403CA40447804FA03F15D
:105370008478144021430901254C0678A15504780E
:1053800004F01F050124AC4005786D11AD0005F156
:10539000E025C5F8004109E0047804F01F05012468
:1053A000AC401C4D0678761145F8264070BD1A4A6F
:1053B0000A400243154B1B1F1A60704739B1134A4C
:1053C000121D12680243114B1B1D1A6006E00F4AA2
:1053D000121D126882430D4B1B1D1A607047042872
:1053E00008D14FF0E021096941F004014FF0E022BB
:1053F000116107E04FF0E021096921F004014FF04D
:10540000E0221161704700000000FA050CED00E099
:1054100000E400E080E100E080FFFF1F10B50446DB
:10542000CC48844208D10121042000F02DFB00214A
:10543000042000F029FB46E0C748844208D101213E
:10544000082000F021FB0021082000F01DFB3AE0BD
:10545000C248844208D10121102000F015FB002130
:10546000102000F011FB2EE0BD48844208D101213C
:10547000202000F009FB0021202000F005FB22E0A5
:10548000B848844208D10121402000F0FDFA0021F3
:10549000402000F0F9FA16E0B348844208D1012117
:1054A000802000F0F1FA0021802000F0EDFA0AE0FF
:1054B000AE48844207D10121801500F0E5FA0021B1
:1054C000A01500F0E1FA10BD10B50121084600F06A
:1054D000DBFA0021012000F0D7FA10BD2DE9F041E0
:1054E000024600250026002000230024002791F812
:1054F00003C00CF00F0591F803C00CF0100CBCF1C8
:10550000000F03D091F802C04CEA050591F800C0E5
:10551000BCF1000F31D0146800202BE04FF0010CDB
:105520000CFA00F3B1F800C00CEA03069E4220D149
:1055300083004FF00F0C0CFA03F7BC4305FA03FC91
:105540004CEA040491F803C0BCF1280F06D14FF0D7
:10555000010C0CFA00FCC2F814C00AE091F803C078
:10556000BCF1480F05D14FF0010C0CFA00FCC2F859
:1055700010C0401C0828D1D31460B1F800C0BCF1A1
:10558000FF0F34DD546800202EE000F1080C4FF0CE
:10559000010808FA0CF3B1F800C00CEA03069E42B9
:1055A00021D183004FF00F0C0CFA03F7BC4305FA2E
:1055B00003FC4CEA040491F803C0BCF1280F05D1A8
:1055C00000F1080C08FA0CF8C2F8148091F803C036
:1055D000BCF1480F07D100F1080C4FF0010808FAA0
:1055E0000CF8C2F81080401C0828CED35460BDE8E7
:1055F000F0814FF6FF710180022181700421C1709A
:1056000070470246002093680B400BB1012000E078
:10561000002070470146886880B27047024600202B
:10562000D3680B400BB1012000E000207047014619
:10563000C86880B2704701617047416170470AB124
:10564000016100E041617047C16070474FF48032F2
:105650000A43826181618261826982697047024680
:105660000020434B18684FF68073184040EA021040
:1056700008433F4B186070473E49C8617047F0B51A
:105680000A46002300240021002500F00046B6F160
:10569000004F02D1364EF16901E0354E7168C0F31A
:1056A000034583B200F44016B6F5401F08D121F03F
:1056B00070612F4E766826F070662D4F7E6012E086
:1056C00000F48016B6F5801F06D1032606FA05F40D
:1056D000A14341F0706106E0460D360103FA06F67B
:1056E000B14341F0706122B1460D360103FA06F66E
:1056F000314300F00046B6F1004F02D11C4EF1617B
:1057000001E01B4E7160F0BD30B500228B071C0F0D
:105710000F2303FA04F2164B08338C1053F824308D
:105720009343134C08348D1044F8253023468C10D5
:1057300053F824308C07240F00FA04F423430C4C54
:1057400008348D1044F8253030BD0A49DC3108603A
:105750007047000000080140000C014000100140AB
:105760000014014000180140001C014000200140CD
:105770000000014000002042DF48006840F00100C6
:10578000DD49086008464068DC490840DA4948605D
:1057900008460068DA490840D749086008460068AA
:1057A00020F4802008600846406820F4FE0048602D
:1057B0004FF41F0088607047CF49096821F4803199
:1057C000CD4A11601146096821F480211160B0F5BD
:1057D000803F03D0B0F5802F0ED106E0C64909689E
:1057E00041F48031C44A116007E0C349096841F4BB
:1057F000A021C14A116000E000BF00BF704710B592
:1058000001460022002300204A11012A02D1BA4C8D
:10581000236806E0022A02D1B74C236A01E0B64CA5
:10582000636A01F01F02012494401C400CB1012066
:1058300000E0002010BD38B50020009000240025B5
:1058400000BF3120FFF7DBFF05460098401C0090A9
:105850000098B0F5A06F01D0002DF2D03120FFF7F5
:10586000CEFF08B1012400E00024204638BD0146E7
:105870000020A14A106820F0F80040EAC100106042
:105880007047A04908607047024600209A4B58684C
:1058900020F47C1042EA01031843974B586070478C
:1058A00098490866704701460020934A506820F0E6
:1058B00003000843506070478F48406800F00C00B8
:1058C0007047014600208C4A506820F0F0000843E1
:1058D0005060704701460020874A506820F4E0601D
:1058E00008435060704701460020834A506820F406
:1058F000605040EAC1005060704729B17E4A527A38
:1059000002437D4B5A7204E07B4A527A82437A4BBF
:105910005A7270477B49D8310860704701460020B1
:10592000754A506820F44040084350607047002199
:10593000714A20321170704A82F82010012802D07A
:1059400004280AD104E001216B4A2032117005E0DD
:105950000521694A2032117000E000BF00BF704786
:105960006949086070476449096A0143624A1162E3
:105970007047654944390860704730B500210022FE
:10598000002400235C4D6D6805F00C0121B1042951
:1059900005D0082923D105E05C4D056022E05B4D70
:1059A00005601FE0544D6D6805F47012524D6D682E
:1059B00005F48034022505EB92421CB9544D554341
:1059C00005600BE04C4D6D6805F400351DB1504D80
:1059D0005543056002E04D4D5543056002E04B4DD7
:1059E000056000BF00BF444D6D6805F0F001090976
:1059F000484D6B5C0568DD4045603F4D6D6805F4C2
:105A0000E061090A434D6B5C4568DD4085603A4DB5
:105A10006D6805F46051C90A3E4D6B5C4568DD4018
:105A2000C560354D6D6805F44041890B3A4D6B5C9E
:105A3000C568B5FBF3F5056130BD29B12E4A526941
:105A400002432D4B5A6104E02B4A526982432A4B90
:105A50005A61704729B1284A92690243264B9A61DC
:105A600004E0254A92698243234B9A61704729B129
:105A7000214AD2690243204BDA6104E01E4AD2690E
:105A800082431D4BDA61704729B11B4AD268024339
:105A9000194BDA6004E0184AD2688243164BDA6088
:105AA000704729B1144A12690243134B1A6104E08A
:105AB000114A12698243104B1A61704712494039EA
:105AC000086070470F49C86470470B49C871704738
:105AD0000948406A40F080700749486270470146B3
